:020000040800F2
:10000000480400200101000811070008230200082D
:100010000D0700086D0100088D08000800000000B1
:1000200000000000000000000000000015070008AC
:1000300071010008000000001307000817070008FE
:100040001B0100081B0100081B0100081B01000820
:100050001B0100081B0100081B0100081B01000810
:100060001B0100081B0100081B0100081B01000800
:100070001B0100081B0100081B0100081B010008F0
:100080001B0100081B0100081B0100081B010008E0
:100090001B0100081B0100081B0100081B010008D0
:1000A0001B0100081B0100081B0100081B010008C0
:1000B0001B0100081B0100081B0100081B010008B0
:1000C0001B0100081B0100081B0100081B010008A0
:1000D0001B0100081B0100081B0100081B01000890
:1000E0001B0100081B0100081B010008DFF80CD0F1
:1000F00000F02AF800480047B10800084804002032
:100100000648804706480047FEE7FEE7FEE7FEE7B1
:10011000FEE7FEE7FEE7FEE7FEE7FEE7350800083C
:10012000ED000008D2B201E000F8012B491EFBD21D
:1001300070470022F6E710B513460A4604461946F2
:10014000FFF7F0FF204610BD064C074D06E0E068C3
:1001500040F0010394E8070098471034AC42F6D30E
:10016000FFF7C8FF600900088009000800BFFEE72C
:10017000704700002DE9F04104460D46002614B1F9
:10018000012C17D10AE0234800682349B0FBF1F0A5
:10019000471E3946214800F031FA0BE01D4800683F
:1001A0004FF47A71B0FBF1F0471E39461B4800F05E
:1001B00025FA00BF00BF4FF47A701849C86200BF2B
:1001C0000020486200BF00BF0846006840F0010000
:1001D000086000BF0EE000BF1048006900F0010099
:1001E00040B106F57A7600BF6FF001000B49086157
:1001F00000BF00BF00BF0948406A3044A842EAD3AC
:1002000000BF0648006820F001000449086000BFF4
:10021000BDE8F0810000002040420F0000040040D3
:10022000704700BFFEE7000010B53849384800F0BD
:1002300086F901210020FFF79DFF3649344800F080
:100240007EF901210020FFF795FF3349304800F087
:1002500076F901210020FFF78DFF64210120FFF7CF
:1002600089FF2E482E49086240F201112C48416254
:100270002A482B49886240F202212948C162274856
:100280002749086340F20441254841632348244933
:10029000886340F608012248C163302000F06AF804
:1002A0000A210120FFF766FF302000F063F8C82123
:1002B0000020FFF75FFF302000F05CF8202000F006
:1002C00059F82821002000F02DF80D21002000F021
:1002D00029F80121002000F025F84821012000F034
:1002E00021F86521012000F01DF86C21012000F0AB
:1002F00019F86C21012000F015F86F21012000F0A1
:1003000011F82121012000F00DF810BD80008004BB
:10031000001001402000200440004004000801407B
:100320000400002070B505460C4615B1012D12D110
:1003300008E00E490E4800F002F901210020FFF705
:1003400019FF09E009490A4800F0FDF801210020E1
:10035000FFF710FF00E000BF00BF204600F00AF8E2
:100360002107080E00F006F870BD000020002004F0
:100370000010014070B505461B491C4800F0DFF82D
:1003800001210020FFF7F6FE082619E0741E05F093
:10039000800048B1164A02EBC4025168144A52F870
:1003A000340000F0D0F808E0114A02EBC4025168B2
:1003B0000F4A52F8340000F0C2F86806050E761EA7
:1003C000042EE3DC0B49094800F0BDF801210020B0
:1003D000FFF7D0FE0749054800F0B1F801210020E1
:1003E000FFF7C8FE70BD000040004004001001404F
:1003F000040000208000800408B505498969014394
:10040000034A9161114689690140009100BF08BD0E
:10041000001002402DE9F04102460B461868C0F377
:100420000F2595FAA5F0B0FA80F47CE00120A040F9
:100430002840002876D0082C04D240F2011000FA9F
:1004400004F106E0A4F108004FF00116864046F0E2
:100450008061586802EB116691FAA1FCBCFA8CFC31
:100460004FEA8C084FF00F0C0CFA08FC376827EAAB
:100470000C0791FAA1FCBCFA8CFC4FEA8C0C00FA38
:100480000CFC47EA0C07376000BF1869D66826EAFB
:1004900011260F0A97FAA7F7B7FA87F700FA07F7B6
:1004A0003E43D66000BF5868012802D0586809282A
:1004B00038D1986802EB116691FAA1FCBCFA8CFC69
:1004C0004FEA8C084FF0030C0CFA08FC376827EA57
:1004D0000C0791FAA1FCBCFA8CFC4FEA8C0C00FAD8
:1004E0000CFC47EA0C07376000BFD86802EB1166C6
:1004F00091FAA1FCBCFA8CFC4FEA8C084FF0040C7A
:100500000CFA08FC376827EA0C0791FAA1FCBCFA40
:100510008CFC4FEA8C0C00FA0CFC47EA0C073760A5
:1005200000BF00BF641C25FA04F000287FF47EAFF2
:100530000120BDE8F081C1F30F2242617047C1F391
:100540000F2242617047C1F30F22026170474FF4DE
:100550007A71B0FBF1F2521E4FF0E0235A61002293
:100560009A6105221A6100BF7047000001490860C6
:10057000704700000000002010B5024600231368F9
:100580001B48824208D0B2F1804F05D01948824200
:1005900002D01948824204D123F070004C6840EA2E
:1005A00004031348824208D0B2F1804F05D01148AD
:1005B000824202D01048824204D123F44070CC68B9
:1005C00040EA040313608868D06200BF0888906224
:1005D00000BF0748824203D1087C106300BF00BF00
:1005E00000BF506940F00100506100BF012010BD04
:1005F000002C014000040040000800408162704768
:1006000000B585B014216846FFF793FD1020FFF771
:10061000F3FE2020FFF7F0FE0420FFF7EDFE144963
:100620001448FFF788FF40F60F711348FFF783FF68
:100630000F480090012001900220029000200390BA
:100640000120049069460B48FFF7E4FE40F60F7066
:1006500000900120019002200290002003900120D0
:10066000049069460448FFF7D5FE05B000BD0000C0
:10067000E000E004001001400008014000B587B030
:10068000142102A8FFF755FD02201E49C969014344
:100690001C4AD1611146C9690140019100BF00BFE8
:1006A00048F69F40ADF80800002003904FF6FF7019
:1006B00004900020059002A91348FFF75DFF00BFDA
:1006C0001148006820F080000F49086000BF00203A
:1006D000896844F20702914301430B4A916000BFCD
:1006E00000BF1146496821F070010143516000BF0D
:1006F00000BF1046806820F080001146886000BF6F
:1007000007B000BD001002400004004000BFFEE73B
:10071000704770477047704710B50220424909681A
:1007200021F007010143404A116000BF00BF10469D
:10073000006800F00700022801D0FFF771FD00BF3C
:100740003A48006840F480303849086000BF00BF74
:1007500000BF36480068C0F340400028F8D04FF48E
:1007600080304FF4E011314A526822F47C1200F4D8
:1007700040330B431A432D4B5A6000BF00BF18464D
:10078000006840F080701946086000BF00BF00BFDD
:1007900026480068C0F340600028F8D08020234934
:1007A000496821F0F0010143204A516000BF002058
:1007B0001146496821F4E0610143516000BF00BF68
:1007C0001146496821F460510143516000BF022085
:1007D0001146496821F003010143516000BF00BF89
:1007E00000BF1248406800F00C000828F8D11048FB
:1007F000FFF7ADFE0420042808D14FF0E02109697D
:1008000041F004014FF0E022116107E04FF0E021D8
:10081000096921F004014FF0E022116100BF044892
:10082000FFF7A4FE10BD00000020024000100240AF
:10083000005125021148006840F001000F4908608E
:10084000084640680E4908400C4948600846006860
:100850000C490840094908600846006820F48020D7
:1008600008600846406820F4FE0048604FF41F000E
:100870008860C80304490860704700000010024007
:100880000000FFF8FFFFF6FE08ED00E000BFFEE706
:1008900002E008C8121F08C1002AFAD17047704749
:1008A000002001E001C1121F002AFBD170470000A7
:1008B00008B50120234989690143224A9161114603
:1008C00089690140009100BF00BF00071146C96956
:1008D0000143D1611146C9690140009100BF00BFC9
:1008E00003200246184B19684FF6FF031940174BB7
:1008F0000B4343EA0221144B196000BF00BF1448A8
:10090000406820F0E060124948600846406840F0C6
:100910000070486000BFFFF7FFFEFFF771FEFFF7B2
:10092000ADFEFFF781FC0CE00A480B49C968C0F333
:100930000F225140084AD16000BF08490020FFF74C
:1009400019FCF1E7001002400CED00E00000FA0590
:1009500000000140200020040010014020A10700F9
:100960008009000800000020040000009008000832
:10097000840900080400002044040000A0080008C6
:0409800000A24A0483
:04000005080000ED02
:00000001FF
